:020000040800F2
:1000000018080020C5020008150B00080D0B000899
:10001000110B0008050B0008910B00080000000000
:100020000000000000000000000000001D0B0008A0
:10003000090B000800000000190B0008210B000844
:10004000DF020008DF020008DF020008DF0200080C
:10005000DF020008DF020008DF020008DF020008FC
:10006000DF020008DF020008DF020008DF020008EC
:10007000DF020008DF020008DF020008DF020008DC
:10008000DF020008DF020008DF020008DF020008CC
:10009000DF020008DF020008DF020008DF020008BC
:1000A000DF020008DF020008DF020008DF020008AC
:1000B000DF020008DF020008DF020008DF0200089C
:1000C000DF020008DF020008DF020008DF0200088C
:1000D000DF020008DF020008DF020008DF0200087C
:1000E000DF020008DF020008DF020008DF0200086C
:1000F000DF020008DF020008DF020008DF0200085C
:10010000DF020008DF020008DF020008DF0200084B
:10011000DF020008DF020008DF020008DF0200083B
:10012000DF020008DF020008DF020008DF0200082B
:10013000DF020008DF020008DF020008DF0200081B
:10014000DF020008DF020008DF020008DF0200080B
:10015000DF020008DF02000800000000DF020008E4
:10016000DF020008DF0200080000000000000000BD
:10017000DF020008DF020008DF02000800000000C4
:1001800000000000DF020008DF020008DF020008B4
:10019000DF02000800000000000000000000000076
:1001A000000000000000000000000000DF02000866
:1001B000DF02000800000000DF020008000000006D
:1001C000000000000000000000000000000000002F
:1001D0000000000000000000DF020008DF0200084D
:1001E000DF020008DF020008DF020008DF0200086B
:1001F000DF020008DF020008DF020008DF0200085B
:10020000DF020008DF020008DF02000800F002F849
:1002100000F049F80AA090E8000C82448344AAF157
:100220000107DA4501D100F03EF8AFF2090EBAE855
:100230000F0013F0010F18BFFB1A43F0010318471A
:10024000E820000008210000103A24BF78C878C1D7
:10025000FAD8520724BF30C830C144BF04680C60CC
:10026000704700000023002400250026103A28BF14
:1002700078C1FBD8520728BF30C148BF0B60704718
:10028000662901F04F87002070471FB501F03DFF40
:1002900000F0AAFA04000020002101F0A9FEE060AD
:1002A0001FBD10B510BD00F0BFFB1146FFF7EDFFFD
:1002B00001F0C2F800F0DDFB03B4FFF7F2FF03BC6E
:1002C00000F068FC0948804709480047FEE7FEE760
:1002D000FEE7FEE7FEE7FEE7FEE7FEE7FEE7FEE7F6
:1002E00004480549054A064B70470000250B0008E5
:1002F0000D02000818020020180800201804002031
:1003000018040020704700000FB4044910B503AA78
:10031000029800F057FA10BC5DF814FB680000204A
:100320002DE9F0410E460446002020622046E16897
:10033000884730B3252805D0D4E901219047206AA9
:10034000401CF2E7E168204600278847050018D0E6
:10035000A5F14100192802D820354FF40067324634
:10036000294620462760FFF78BFF40B1012804D0C3
:10037000F61D26F007060836D8E7361DD6E72846CC
:10038000DAE7206ABDE8F081704770477047704730
:1003900010B500F02DFA006810BD10B5044600F04D
:1003A00027FA046010BD2DE9FF4F0C461E464FF0A2
:1003B000FF378BB0D2E90001DDF860800A908A46F1
:1003C000C1F30A5505B93D46002108464FF000002B
:1003D000BAF1000F00F4400005DA00EB80004FF4A2
:1003E000400101EA50004FEA9059B9F1010F00DDD8
:1003F000B9460A9850EA4A000ED044F61050A5F2C9
:10040000FF3545432F14B8F1000F1ED07542291E49
:100410001EDDC9F100021CE0B8F1010F4FF0000031
:1004200001D0302103E0F24305E02154401CB042EA
:10043000FBDB30460022002121540B99C1F80880D3
:10044000C1E900200FB0BDE8F08FBD1B6D1CDEE7D9
:100450004A4600DA694206A800F06CFA06AB93E857
:10046000070003AB83E8070050460A9901F0C3F97F
:100470008DE80700A0F500501F3800900398002D6C
:100480000ADD42F21F014A460844002303A90390F3
:10049000684601F02CFC09E0A0F500504A461F38E0
:1004A000002303A90390684601F036FC8DE807009D
:1004B0000004000C03D04FF0FF30410800E010466C
:1004C000B8F1000F03D00022009215461EE0751E01
:1004D00005D400F091F9303262556D1EF9D5B3465E
:1004E0000122084302D000227F1C04E0207830283B
:1004F00001D100227F1E002A099784D01DE0112D12
:1005000007DA00F079F9303262556D1C50EA0102C9
:10051000F5D1084302D00098C8B10EE00021681E52
:1005200005E0235C625C63542254401E491C8142F6
:10053000F7DBAB46A81B401E0990002004F80B0017
:100540000B98099AC0F80880C0E9002B7AE71126B9
:100550004FF0000857E72DE9F04F88460446D21DBA
:1005600022F0070191B0D1E90001CDE90A0101F0C3
:100570000AFD02460B98C00F01D02D2007E020682D
:10058000810701D52B2002E0202101EAC000032AC7
:10059000099001D0072A05DB03464146204600F0BA
:1005A00089F90BE12078800601D5E06900E006209A
:1005B000B8F1650F814606D0B8F1660F18D0B8F1D2
:1005C000670F70D131E00020B9F1110F009001DB0D
:1005D000112301E009F101030AAA01A90CA8FFF700
:1005E000E2FEDDE90C70002609F10105834647E0D3
:1005F00001204B4600904FF000470AAA01A90CA821
:10060000FFF7D1FEDDE90DB00C995D46002610B96B
:1006100009F101000D18B9EB050003D4C0F1FF3654
:1006200009F10105A5EB09002BE0B9F1010F01DA91
:100630004FF001090020B9F1110F0090484601DD8B
:10064000112300E003460AAA01A90CA8FFF7ABFE9C
:10065000DDE90C704D4600268346207800070AD459
:10066000AB4500DA5D4601A8012D04DD411911F802
:10067000011C302907D04F4502DA17F1040F04DAC4
:10068000012082460FE06D1EEEE7002F02DCED1B1D
:100690003E4403E0781CA84200DD7D1CB81B00F13D
:1006A000010A4FF000472078000703D4AA4501DB78
:1006B0004FF0FF3A0021B7F1004F0DF143088DF8DC
:1006C000431024D002202B23002F01DA7F422D2358
:1006D0000A21021EA0F1010000DC5FB197FBF1FCD2
:1006E00097FBF1F201FB1C7C17460CF1300C08F86B
:1006F00001CDEEE7A8F1010003702188090501D5BD
:10070000452100E06521A0F1010800F8011C0998CD
:100710000FA9A1EB0807FF1D00B10120411901EB52
:10072000EA70A1693844081A401EA0612078C0060A
:1007300002D42046AFF30080099828B1D4E9012102
:100740009047206A401C20622078C00622D52046AF
:10075000AFF300801EE0002E04DBB34502DD01A8EC
:10076000805D00E03020D4E901219047206A401CE0
:100770002062761CAAF101005FEA000A0AD100F0AB
:1007800033F8C0680168405CD4E901219047206AD1
:10079000401C2062281EA5F10105DCDC07E0D4E93D
:1007A000012118F8010B9047206A401C2062381E76
:1007B000A7F10107F3DC2046AFF30080032011B05E
:1007C00041E60000074B70B50D467B4400F05FF832
:1007D0000446284600F020F910B14FF0FF3070BDFC
:1007E000204670BD830B00000048704728000020A1
:1007F000004870470800002030B5B0F10A0271F1DE
:1008000000034FEA900E4EEA817EB0EB0E0061EBE2
:1008100091014FEA101E4EEA017E10EB0E0041EBF3
:1008200011114FEA102E4EEA016E10EB0E0041EB53
:1008300011214FEA104E4EEA014E10EB0E0041EB33
:100840001141401841F100014FEAD00040EA4170E7
:100850004FEAD1014FEA810444EA907410EB80051D
:1008600044EB01046D1944EB0404521BA3414FF007
:10087000000348BF0A3200D530BD401C41F10001E1
:1008800030BD000001694A1C02610878704700B55C
:100890008FB0CDE901310021059105497944CDE9B9
:1008A000031011466846FFF73BFD0FB000BD000086
:1008B000E5FFFFFF2DE9F0411F46044603260168CE
:1008C000072A01F4006004DB08B116A505E016A5AF
:1008D00003E008B115A500E015A521F01000206087
:1008E000A069C01EA0610FB1401EA0612046AFF3F9
:1008F00000804FB1D4E9012138469047206A401C5E
:100900002062C01C206206E0206AFAE7D4E90121D7
:1009100015F8010B9047761EF8D22046AFF3008001
:10092000BDE8F0814E414E006E616E00494E4600BA
:10093000696E66002DE9F047814616468AB0354853
:1009400078440DC88DE80D0032487844801C03AC13
:100950000DC884E80D0041F69B300844372190FB18
:10096000F1F290FBF1F5A5F1800501FB12041B3CAF
:1009700002D56442012000E00020DFF898A0804604
:100980000027FA44AAF1BE0A0EE0E0070AD0324678
:10099000684607EB470101230AEB810101F0BCF92E
:1009A0008DE8070064107F1C002CEED1194F7F44A6
:1009B000AE3F19E0E80715D007EB04100DF1180A57
:1009C00090E80E008AE80E00C068F04201D1981944
:1009D00008903246012306A903A801F09DF903AB54
:1009E00083E807006D10641C002DE3D14FF0010374
:1009F00032466946B8F1000F03A802D001F077F93A
:100A000001E001F089F9C9E90001C9F808200AB03C
:100A1000BDE8F08760180000007B00F080007047A0
:100A200000487047080000207546FFF7F9FFAE4602
:100A300005006946534620F00700854618B020B5EA
:100A4000FFF74EFCBDE820404FF000064FF00007D6
:100A50004FF000084FF0000BAC46ACE8C009ACE822
:100A6000C009ACE8C009ACE8C00921F007018D4617
:100A7000704710B50446AFF300802046BDE8104033
:100A8000FFF71ABC0000000030B44FF0013C50F8F2
:100A9000042B51F8043BCCFA52F4D51A20D1FCB9FE
:100AA00050F8042B51F8043BCCFA52F4D51A17D164
:100AB000B4B950F8042B51F8043BCCFA52F4D51ACF
:100AC0000ED16CB950F8042B51F8043BCCFA52F417
:100AD000D51A05D1002CDAD030BC4FF00000704799
:100AE00029BAB1FA81F111F01801D1F12000844046
:100AF000F2D1CA40CB4012F0FF0213F0FF0330BC2A
:100B0000D01A7047FEE7000070470000FEE70000C3
:100B1000FEE70000704700007047000070470000CB
:100B2000704700004EF6885CCEF2000CDCF8002026
:100B300043F6000142F47002C4F20201CCF8002036
:100B40000A6842F001020A600A689207FCD58A68C6
:100B500022F003028A6000BF8A6812F00C0FFBD1FA
:100B600000228A600B684FF6FF70CFF6F2601840E3
:100B7000086043F20200C0F2030048604FF41F0017
:100B8000C1F8A020C8604FF000604CF8800C70479E
:100B9000FEE70000704700002DE9F04F88B0B0F884
:100BA00002E00B889E4540F09680048813889C42A2
:100BB00040F09380B1F802905388994540F08F80BF
:100BC0004B685168406802914FEA9E0C2EF0030179
:100BD00000EB81060CFB09F103EB01119FED430AC9
:100BE0000EF0030503930191A0F110014FEA8E026C
:100BF0004FEA890700230092CDE9049E0FE000BF71
:100C0000DDF81090069BDDF814E0079C009A4B4439
:100C100000EB8E00013C06EB8E06114461D0029A77
:100C2000DDF80C80DDF804A002EB830BCE460794C0
:100C3000069308E0ABEC011ABEF1010E08F10408BE
:100C40000AF1040ADCD0BCF1000FB0EE401AC14634
:100C500002462ED043460A466446B0EE401A00BF14
:100C600093ED002A92ED043A3B4492ED054A23EEBF
:100C7000022A93ED003A3B4492ED065A31EE021AF5
:100C800024EE032A93ED003A3B4492ED076A31EEDD
:100C9000021A25EE032A93ED003A31EE021A26EEEF
:100CA000032A103231EE021A013C3B44D8D1D1461E
:100CB0003246002DBED0141F2B4600BF94ED012AF2
:100CC00099ED003A043422EE032A31EE021A013B78
:100CD000B944F3D1AEE7FD2004E0FD2002E0FD20A1
:100CE00000E0002040B208B0BDE8F08F0000000036
:100CF000F0B590ED000AA1F1010E4FF0000CBCEB35
:100D00009E0F42D0012775464FEA9E0467F3010506
:100D1000A0F10C074FF0000C042600BF97ED041A59
:100D200097ED052A97ED063AB4EE410A97ED074A8A
:100D3000F1EE10FABCBFB0EE410AA6F1030CB4EE1E
:100D4000420AF1EE10FABCBFB0EE420AA6F1020C64
:100D5000B4EE430AF1EE10FABCBFB0EE430AA6F1BE
:100D6000010CB4EE440AF1EE10FA07F11007BCBF13
:100D7000B0EE440AB446013C06F10406CED100EBC5
:100D800085041EF0030004D114E0041D1EF00300CE
:100D900010D04042271F00BF97ED011A0437B4EE70
:100DA000410AF1EE10FABCBFB0EE410A01EB000CB3
:100DB0000130F1D382ED000AC3F800C0F0BD00009D
:100DC00080B50023B3EB910F22D09FED1C0A4FEAB0
:100DD000910E21F0030CA0F1100300BF93ED041A53
:100DE00093ED052A93ED063A30EE010A93ED074A9A
:100DF00030EE020A30EE030A103330EE040ABEF180
:100E0000010EEBD100EB8C0011F0030305D10CE0D7
:100E10009FED0A0A11F0030307D0043890ED011A80
:100E2000043030EE010A013BF8D101EE101AB8EEA1
:100E3000411A80EE010A82ED000A80BD0000000028
:100E4000F0B590ED000AA1F1010E4FF0000CBCEBE3
:100E50009E0F42D0012775464FEA9E0467F30105B5
:100E6000A0F10C074FF0000C042600BF97ED041A08
:100E700097ED052A97ED063AB4EE410A97ED074A39
:100E8000F1EE10FAC4BFB0EE410AA6F1030CB4EEC5
:100E9000420AF1EE10FAC4BFB0EE420AA6F1020C0B
:100EA000B4EE430AF1EE10FAC4BFB0EE430AA6F165
:100EB000010CB4EE440AF1EE10FA07F11007C4BFBA
:100EC000B0EE440AB446013C06F10406CED100EB74
:100ED00085041EF0030004D114E0041D1EF003007D
:100EE00010D04042271F00BF97ED011A0437B4EE1F
:100EF000410AF1EE10FAC4BFB0EE410A01EB000C5A
:100F00000130F1D382ED000AC3F800C0F0BD00004B
:100F100010B52DED028B82B0144601AA00F020F826
:100F20009DED018AB5EE408AF1EE10FA02DA9FEDEE
:100F30000B0A08E0B0EE480A01F03DF8B4EE400AB2
:100F4000F1EE10FA05D684ED000A02B0BDEC028B7A
:100F500010BDB0EE480A01F02EF8F4E700000000E2
:100F600010B5022904D29FED480A82ED000A10BD97
:100F70000023B3EB910F4FEA910C20D09FED421A62
:100F800021F0030EA0F11004634600BF94ED040AA3
:100F900094ED052A94ED063A31EE000A94ED074AE5
:100FA00030EE020A30EE030A103430EE041A013B30
:100FB000ECD100EB8E0311F0030E06D10FE09FED94
:100FC000321A034611F0030E09D01C1F734600BFEE
:100FD00094ED010A043431EE001A013BF8D100EE21
:100FE000101AB8EE400A81EE001ABCF1000F2FD0A3
:100FF0009FED252A21F00301A0F1100494ED043A9D
:1010000094ED054A33EE413A23EE033A94ED065A45
:1010100032EE032A34EE413A23EE033A94ED076AA6
:1010200032EE032A35EE413A23EE033A32EE032A3A
:1010300036EE413A23EE033A103432EE032ABCF185
:10104000010CDBD100EB8100BEF1000F05D111E0F6
:101050009FED0D2ABEF1000F0CD0043890ED013A3F
:10106000043033EE413A23EE033A32EE032ABEF166
:10107000010EF3D1BFEE001A30EE010A82EE000A33
:1010800082ED000A10BD00BF0000000043F6080119
:10109000C4F202010A6800F00F0022F0F00242EAF6
:1010A000001008607047000043F60801C4F2020116
:1010B0000A6800F0070022F4E05242EA802008604B
:1010C0007047000043F60801C4F202010A6800F00C
:1010D000070022F4604242EA403008607047000096
:1010E00043F6A401C4F202010A68012822F0300389
:1010F00008BF42F030030B6070470000042888BF2F
:101100007047DFE800F0030C19262F0043F60000BB
:10111000C4F20200026861F300020260704743F605
:101120000000C4F20200026801F0010122F48032E2
:1011300042EA01410160704743F60000C4F2020038
:10114000026801F0010122F0807242EA016101604F
:10115000704743F60000C4F20200026F61F3000220
:101160000267704743F60000C4F20200426F61F369
:10117000000242677047000070B543F6040541F273
:1011800000260446C4F20205C0F27A0600F0D8F840
:1011900002280DD0E0B9D5F89C00400418D5D5F848
:1011A0009C00C00444BF46F60046C0F2DC260FE0B7
:1011B0002868286813A3C0F3881029682A6801F0FA
:1011C0000F01C2F302429A5C70435143B0FBF1F647
:1011D000266068680DA1C0F30310085C21680FA2A7
:1011E00021FA00F060606968C1F38221515C20FA45
:1011F00001F1E1606968C1F34231515CC840A0600F
:1012000070BD00BF010204081020000000000000B3
:1012100000000000010203040607080900000000A6
:101220000102030443F60002010CC4F202028958D1
:1012300000F01F0021FA00F000F0010070470000EC
:1012400010B500241120FFF7EDFF210B022903D870
:10125000012804F10104F5D11120FFF7E3FF013863
:10126000B0FA80F0400910BD43F6000200F01F0301
:101270004FF0010CC4F2020201290CFA03F14FEA0B
:101280001040835814BF23EA01011943815070476D
:1012900010B543F6040CC4F2020CDCF800E000F0D8
:1012A00001042EF4800040EA8450CCF80000DCF801
:1012B000000061F38E10CCF80000DCF8000003F0B1
:1012C000070162F30300CCF80000DCF8000020F412
:1012D000E02040EA0140CCF8000010BD43F60000D9
:1012E000C4F20200016841F0010101600168890750
:1012F000FCD5816821F00301816000BF816811F095
:101300000C0FFBD10021816002684FF6FF73CFF60E
:10131000F2631A40026043F20202C0F2030242602A
:10132000C0F8A0104FF41F01C160704743F60801D8
:10133000C4F202010A6860F301020A60704700000B
:1013400043F60800C4F202000068C0F38100704751
:10135000B0B541F200050446C4F2010528468021DB
:1013600000F0E6F90028F9D0A1B2284600F0D2F941
:101370002046B0BD4FF6FF714FF08072C0E90012F9
:10138000704700002DE9F0410A88002A08BFBDE837
:10139000F0814FF000084FF0030C4FF0010E0024D5
:1013A000002508E0B8EB520F4FEA520205F10105A3
:1013B00004F1020426D0D607F4D006680CFA04F72C
:1013C000BE4306608E790368A640334303604368DA
:1013D0000EFA05F6B34343600B794668AB403343DE
:1013E00043608368BB438360CB798668A340334303
:1013F0008360C368BB43C3604B79C668A340334373
:10140000C360CFE7BDE8F08110B51C2303EA810E6D
:1014100024234FF00F0C11F0F80F08BF2023C458FD
:101420000CFA0EF124EA0101C150C15802FA0EF281
:101430001143C15010BD00008EB000F0A3F84FF46E
:10144000E13000F02FF942F2C810C0F60000D0E9F8
:1014500000010D9142F2D011C0F60001D1E9001255
:10146000CDE90B2042F2C010C0F60000D0E9000226
:101470000A91CDE908020CA80AA908AAFFF78CFB7B
:1014800040F20004C2F2000440F2D00540F2BC0A6F
:1014900040F2CC062168C2F20005C2F2000AC2F294
:1014A0000006284652463346FFF722FC40F2C408A5
:1014B0002168C2F20008284642463346FFF7C0FCC6
:1014C00040F2C0072168C2F2000728463A46FFF7FB
:1014D00077FC40F2C8062168C2F200062846324670
:1014E000FFF716FD40F210292168C2F200092846D4
:1014F0004A46FFF735FDDAF8000000F095FD044696
:10150000D8F800000D4600F08FFD41EC180B38684C
:1015100000F08AFD41EC190B306800F085FD41ECCC
:101520001A0BD9F8000000F07FFD41EC100B05A06C
:1015300022462B468DEC068B8DED060BFEF7E4FE66
:10154000FEE700BF6D61785F6D61726B73203D20B7
:1015500025662C206D696E5F6D61726B73203D2076
:1015600025662C206D65616E203D2025662C20733C
:101570007464203D2025662C20766172203D202554
:10158000660A000010B51C20C0F2400001210124B1
:10159000FFF76AFE47F21000C4F20000016864F32E
:1015A0000201016043F66040C4F20200016864F386
:1015B00001010160FFF792FE01200121FFF79EFD6E
:1015C000FFF73EFE0028FBD0012048210122012325
:1015D000FFF75EFE02200121FFF790FD1920FFF7C3
:1015E00021FE0128FAD10020FFF750FD0420FFF76B
:1015F00069FD0420FFF758FD0120FFF771FD02206F
:10160000FFF794FEFFF79CFE0228FBD10020FFF7B6
:1016100067FD00F001F810BDB0B543F6040441F2D7
:101620000025C4F20204C0F27A05FFF789FE022801
:101630000DD0E0B9D4F89C00400418D5D4F89C0033
:10164000C00444BF46F60045C0F2DC250FE0206828
:1016500020680EA3C0F388102168226801F00F01F2
:10166000C2F302429A5C68435143B0FBF1F540F289
:101670000400C2F200000560616806A2C1F3031114
:10168000515C026822FA01F10160B0BD0102040858
:101690001020000000000000000000000102030410
:1016A00006070809F0B583B004460420C0F24400E0
:1016B0000121FFF7D9FD4FF440100121FFF7D4FDC0
:1016C00001AE3046FFF756FE41F200054FF0817043
:1016D000C4F2010502904FF4007005F570470190C7
:1016E00038463146FFF74EFE384609210722FFF7FC
:1016F0008BFE284621460122002300F01FF82846D1
:10170000012100F06FF82846012100F007F803B02E
:10171000F0BD00006FF35F2141607047C26801F0C7
:10172000010122F4005242EA4131C16070470000D9
:101730000068084018BF0120704700002DE9F04103
:1017400084B06D4604462846984616460F46FFF775
:1017500013FD41F2004144F48060C4F2010188426B
:1017600014BF05F10C0005F1080000684CF6CD41EE
:1017700000EB80004000B0FBF7F0CCF6CC41A0FBC2
:101780000112D10801EB8103A0EB43000428A068FB
:101790004FF0010388BF03EBD201C1EA0000A06053
:1017A00066B1E068012E20F08050E060E06814BF70
:1017B00040F4805020F48050E06007E0E06840F0A2
:1017C0008050E060E06820F48050E060206908F01C
:1017D000030120F4405040EA0130206104B0BDE82C
:1017E000F0810000C26801F0010122F0080242EA23
:1017F000C101C16070475FEA400C08BF91F0000F63
:101800004FEA8C234FEAC12243EA51514FEA1C5060
:1018100018BF00F5F0404FEA300018BF41F000411A
:101820005FEA6C5C00F02980BCF1FF3F08BF40F02C
:1018300080407047130C06BF12044FF0100C4FF09D
:10184000000C130E04BF12020CF1080C130F04BF9E
:1018500012010CF1040C930F04BF92000CF1020C66
:10186000D30F04BF52000CF1010C11464FF00002DF
:10187000A0F11F00A0EB0C00704711F0004F08BF53
:10188000704731F000413FF4D5AF0B0C06BF09049F
:101890004FF0100C4FF0000C0B0E04BF09020CF1BE
:1018A000080C0B0F04BF09010CF1040C8B0F04BFD3
:1018B00089000CF1020CCB0F04BF49000CF1010CA4
:1018C000CCF1200322FA03F341EA030102FA0CF2FD
:1018D000A0EB0C0000F10100704723F07F4720F0DF
:1018E0007F4C80EA030000F00040ACEB070303F5F7
:1018F0007C5303F1FF032DE9804909B44FEA1443F7
:1019000024EA03484FEA154B25EA0B4E0FF2042652
:1019100006EB13273E7803FB0667C7F5000707FBB6
:1019200006F64FEAD64606F102064FEA543707FBA1
:10193000066CCCF1005C4FEA1C472CEA074C0CFB10
:1019400006F507FB06F404EB15464FEA9616490820
:101950005FEA320234BF00204FF000404FEAD13737
:1019600006FB07FC4FEA1C4C0CFB0BF7D21B03FBDE
:101970000CF761EB07010CFB0EF7B0EB074072EBC5
:1019800017420CFB08F734BFA2EB0742B2EB074249
:1019900061EB17414FEA0C444FEA910706FB07FC45
:1019A0004FEA1C4C0CFB0BF7B0EBC74072EB573205
:1019B00003FB0CF734BFA2EBC742B2EBC74261EBAB
:1019C00057310CFB0EF7B0EBC70072EB57720CFBF4
:1019D00008F734BFA2EBC702B2EBC70261EB577145
:1019E0004FEA816141EA92114FEA826242EA901223
:1019F0004FEA806004EBCC04039F4FEAD13706FB2B
:101A000007FC4FEA1C4C0CFB0BF7D21B03FB0CF73B
:101A100061EB07010CFB0EF7B0EB074072EB1742CE
:101A20000CFB08F734BFA2EB0742B2EB074261EBB5
:101A300017414FEA8C5504EB9C244FEA910706FBB3
:101A400007FC4FEA1C4C0CFB0BF7B0EBC74072EBEA
:101A5000573203FB0CF734BFA2EBC742B2EBC742CD
:101A600061EB57310CFB0EF7B0EBC70072EB57720E
:101A70000CFB08F734BFA2EBC702B2EBC70261EB65
:101A800057714FEA816141EA92114FEA826242EA5C
:101A900090124FEA806015EB4C2544F100044FEAA8
:101AA000D13706FB07FC4FEA1C4C0CFB0BF7D21B93
:101AB00003FB0CF761EB07010CFB0EF7B0EB0740E3
:101AC00072EB17420CFB08F734BFA2EB0742B2EBF4
:101AD000074261EB17414FEA813141EA92414FEAF7
:101AE000823242EA90424FEA80304FEA0C7615EBA0
:101AF0001C1544F1000448EA03434EEA0B484FF03A
:101B0000000EB2EB080C71EB030724BF62463946A6
:101B10004EEB0E0E4FF0000B0018524149414BEBBB
:101B20000B0BB2EB080C71EB03077BF1000B24BF2E
:101B3000624639464EEB0E0E4FF0000B0018524134
:101B400049414BEB0B0BB2EB080C71EB03077BF13C
:101B5000000B24BF624639464EEB0E0E51EA0207D7
:101B600018BF46F0010616EB0E7655F1000254F14F
:101B7000000103D5BDE88901BDE80088BDE8890101
:101B8000BDE80048B619524141EB0101A3F1010340
:101B9000704780807F7E7D7C7B7A797877767675DA
:101BA0007473727171706F6E6E6D6C6C6B6A6A6952
:101BB0006868676666656464636362616160605FEC
:101BC0005F5E5E5D5D5C5C5B5B5A5A595958585765
:101BD00057565655555554545353525252515150CD
:101BE00050504F4F4F4E4E4D4D4D4C4C4C4B4B4B20
:101BF0004A4A4A4949494848484747474746464666
:101C000045454544444444434343434242424241A0
:101C100041419C46002B30D477002BD04FEA370748
:101C20001CB503B44FF010004FF01001BAF1000FD3
:101C300006D0BCF1000FDCBF40F0080040F0080106
:101C40004FF000000FBCBDE810400BF1010BBBF1E1
:101C5000010F08BF5FEA170722BF12F1010211F15D
:101C600001014FF0004143F1000300F0004043EA5E
:101C700000007047F9D35708D0E746EA06464FEA16
:101C8000164613F1400F1FDD13F1200FDFBF16437F
:101C90000A46002120335B42BED0C3F1200746EA4A
:101CA00006464FEA164602FA07F746EA070622FA00
:101CB00003F2C3F1200701FA07F742EA070221FA0B
:101CC00003F14FF00003A7E746EA020646EA06469C
:101CD0004FEA164646EA0106BCBF46EA0646360CFF
:101CE0004FF000034FF000024FF0000194E72DE9A0
:101CF000804C70B49A46934691E8380007C831EAA0
:101D0000400C48BF34EA430C03D5FFF7E6FDFFF76C
:101D100080FFF0BCBDE8008C2DE9804C70B49A4681
:101D2000934691E8380007C810F0804F08BF13F0C1
:101D3000804F03D100F005F8FFF76BFFF0BCBDE862
:101D4000008C20F07F4723F07F4C80EA030000F0F6
:101D5000004007EB0C03A3F57C53A3F1FE0392F0C4
:101D6000000F00F0B38095F0000F00F077802DE9B0
:101D700001494FEA114021EA00484FEA144624EA9B
:101D8000064700FB06FC08FB06F607FB08F818EB05
:101D900006484CEB164C00FB07F718EB07484CEBDA
:101DA00017404FEA124B22EA0B4E4FEA154625EA3E
:101DB00006470BFB06FC0EFB06F607FB0EFE1EEBB2
:101DC000064E4CEB164C0BFB07F71EEB074E4CEB8D
:101DD000174B18EB0B0840F1000018EB0E0B58EBFB
:101DE000000840F100008F1A4FF000014FF000068C
:101DF0003CBFC943661B14BFB5EB040C00213CBFBC
:101E0000C943F61B4FEA174427EA04454FEA1C472B
:101E10002CEA074C04FB076205FB07F70CFB05F6F1
:101E200016EB074642EB174204FB0CFC16EB0C4684
:101E300042EB1C421BEB060658EB020241414EEA04
:101E40008E0E46EA9E0601D5BDE80189B6195241BB
:101E500041EB0101A3F10103BDE801894FEA1445FB
:101E600024EA05464FEA114721EA074C05FB07F42F
:101E700006FB07F70CFB06F111EB074144EB174497
:101E800005FB0CFC11EB0C4144EB1C444FEA1247E0
:101E900022EA074C05FB07F206FB07F70CFB06F6E8
:101EA00016EB074642EB174205FB0CFC16EB0C4603
:101EB00042EB1C456A1854F1000148BF7047B6193F
:101EC000524141EB0101A3F10103704795F0000F6E
:101ED00037D04FEA114221EA02464FEA144724EA7A
:101EE000074C02FB07F106FB07F70CFB06F414EBAB
:101EF000074441EB174102FB0CFC14EB0C4441EB93
:101F00001C414FEA154725EA074C02FB07F506FB83
:101F100007F70CFB06F616EB074645EB174502FBE9
:101F20000CFC16EB0C4645EB1C42121951F100015A
:101F300048BF7047B619524141EB0101A3F10103BB
:101F400070474FEA144524EA05464FEA114721EA53
:101F5000074C05FB07F106FB07F70CFB06F212EB3B
:101F6000074241EB174105FB0CFC12EB0C4251EB15
:101F70001C414FF0000648BF7047921841EB010129
:101F8000A3F10103704703B401984100009850EA9F
:101F9000C12018BF04204A0D18BF40F0010040F2D4
:101FA000FF72B2EB515F08BF40F00200012808BF8A
:101FB000052002B0704710B52DED028BB1EEC08A3E
:101FC00018EE100A20F00040C0F1FF40C00F0AD008
:101FD00010EE100A20F00040C0F1FF40C00F04BF17
:101FE0000120FEF7DAF9B0EE480ABDEC028B10BD15
:101FF00010B500290AD00878002807D00548784491
:10200000FEF742FD002801D0002010BD02487844B0
:1020100010BD00004A030000420300000808A0F5BC
:1020200000114FEA3101704743004FEAD30C4FEAE9
:102030003C0C43401FBF40070CF1605113F0FE4FB2
:1020400070471CF0006F03D10CF000410020704776
:102050000CF0004343EA507040EACC0010B500F0A9
:102060000EF800BF000000924FEA0001FFF7D6BF54
:102070004FF00041A1F500214FF0000070470EF134
:10208000020E2EF0030E5EF8044B244204D44FEAF5
:102090004102B2F17F4F11D84FEA4003B3F17F4FB5
:1020A0000CD80ED14FEAD07C0CEB4C0C0CF1020C8E
:1020B000B2F17F4F08BF4CEBD17C04E04FF0080C2D
:1020C00001E04FEAD17C0CEB4C0324FA03F404F05A
:1020D0000704B4F1040C06D20EEB840CBDE81040EA
:1020E0004CF0010C6047DFE80CF0070802024FF0EB
:1020F0000040A0F5800010BD0846420018BFD2F194
:10210000807288BF00F0004010BDF1EE100A4FF65B
:10211000FF71C0F2C03120EA010040F04070E1EEF2
:10212000100A7047FEF717BA02400000000000A036
:102130000000000005400000000000C80000000092
:102140000C4000000000409C00000000194000000E
:102150000020BCBE0000000034400000BFC91B8E40
:1021600000000004B5400000504BCFD06607E2CF1E
:10217000010000006C4100003E8251AADFEEA7344E
:1021800001000000D9420000DCB5A0E23A301F9700
:10219000FFFFFFFFB4450000FD25A0C8E9A3C14F24
:1021A000FFFFFFFFFF3F0000000000800000000075
:1021B000FF3F000000000080000000000000000061
:1021C00014000100D000002014000400D8210008F1
:1021D00004000100182300080000284200001442F7
:1021E0000000A2420000E0410000A6420000904230
:1021F00000001042000018420000004200004C4263
:1022000000007C42000080420000C2420000A44264
:102210000000BE420000B4420000844200004C4274
:102220000000584200002842000086420000604240
:1022300000003442000064420000864200008A42EE
:1022400000000C42000050420000E8410000A242A1
:102250000000684200003C42000018420000984222
:102260000000C8420000E8410000044200003C4277
:102270000000E841000048420000084200002442FB
:102280000000744200003842000050420000484202
:10229000000040420000104200003C4200005C424E
:1022A00000003042000020420000C8420000BC4252
:1022B0000000A842000014420000004200008E42CC
:1022C00000003C4200009A420000F84100004842F1
:1022D0000000444200000C4200007C4200008642A4
:1022E000000020420000F8410000E8410000884260
:1022F00000007442000018420000F8410000E04174
:102300000000E0410000984200005C4200000442EE
:102310000000E84100001C420000803F0000803FB8
:102320000000803F0000803F68230008000000207C
:102330000800000048020008702300080800002080
:1023400010080000640200081C00000043000000A8
:10235000F8FFFFFF0C0000000E0000000F0000005F
:102360002E000000000000001400000000127A009F
:040000050800020DE0
:00000001FF
